{
  "contractName": "Users",
  "abi": [
    {
      "inputs": [
        {
          "internalType": "string",
          "name": "username",
          "type": "string"
        },
        {
          "internalType": "string",
          "name": "password",
          "type": "string"
        },
        {
          "internalType": "string",
          "name": "mnemonicPhrase",
          "type": "string"
        }
      ],
      "name": "addNewUser",
      "outputs": [],
      "stateMutability": "nonpayable",
      "type": "function"
    },
    {
      "inputs": [
        {
          "internalType": "string",
          "name": "username",
          "type": "string"
        }
      ],
      "name": "isUserAlreadyRegistered",
      "outputs": [
        {
          "internalType": "bool",
          "name": "",
          "type": "bool"
        }
      ],
      "stateMutability": "view",
      "type": "function",
      "constant": true
    },
    {
      "inputs": [
        {
          "internalType": "string",
          "name": "username",
          "type": "string"
        },
        {
          "internalType": "string",
          "name": "password",
          "type": "string"
        }
      ],
      "name": "loginRegisteredUser",
      "outputs": [
        {
          "internalType": "bool",
          "name": "",
          "type": "bool"
        }
      ],
      "stateMutability": "view",
      "type": "function",
      "constant": true
    },
    {
      "inputs": [
        {
          "internalType": "string",
          "name": "mnemonicPhrase",
          "type": "string"
        },
        {
          "internalType": "string",
          "name": "username",
          "type": "string"
        }
      ],
      "name": "verifyUserWithMnemonicPhrase",
      "outputs": [
        {
          "internalType": "bool",
          "name": "",
          "type": "bool"
        }
      ],
      "stateMutability": "view",
      "type": "function",
      "constant": true
    },
    {
      "inputs": [
        {
          "internalType": "string",
          "name": "username",
          "type": "string"
        },
        {
          "internalType": "string",
          "name": "newPassword",
          "type": "string"
        }
      ],
      "name": "resetUserPassword",
      "outputs": [
        {
          "internalType": "string",
          "name": "",
          "type": "string"
        }
      ],
      "stateMutability": "nonpayable",
      "type": "function"
    }
  ],
  "bytecode": "0x6080604052600060025534801561001557600080fd5b50610c18806100256000396000f3fe608060405234801561001057600080fd5b50600436106100575760003560e01c8063450204fc1461005c5780637a73cfd11461008c5780639a12b1c0146100bc578063f024535d146100d8578063f46a469014610108575b600080fd5b6100766004803603810190610071919061074d565b610138565b60405161008391906107e0565b60405180910390f35b6100a660048036038101906100a191906107fb565b610234565b6040516100b391906107e0565b60405180910390f35b6100d660048036038101906100d19190610844565b610269565b005b6100f260048036038101906100ed919061074d565b610367565b6040516100ff91906107e0565b60405180910390f35b610122600480360381019061011d919061074d565b6104da565b60405161012f9190610973565b60405180910390f35b60006001151560018360405161014e91906109d1565b908152602001604051809103902060009054906101000a900460ff161515146101ac576040517f08c379a00000000000000000000000000000000000000000000000000000000081526004016101a390610a34565b60405180910390fd5b826040516020016101bd91906109d1565b604051602081830303815290604052805190602001206000836040516101e391906109d1565b90815260200160405180910390206003016040516020016102049190610b49565b604051602081830303815290604052805190602001201415610229576001905061022e565b600090505b92915050565b600060018260405161024691906109d1565b908152602001604051809103902060009054906101000a900460ff169050919050565b6002600081548092919061027c90610b99565b9190505550600060405180608001604052806002548152602001858152602001848152602001838152509050806000856040516102b991906109d1565b90815260200160405180910390206000820151816000015560208201518160010190805190602001906102ed929190610550565b50604082015181600201908051906020019061030a929190610550565b506060820151816003019080519060200190610327929190610550565b509050506001808560405161033c91906109d1565b908152602001604051809103902060006101000a81548160ff02191690831515021790555050505050565b60006001151560018460405161037d91906109d1565b908152602001604051809103902060009054906101000a900460ff161515146103db576040517f08c379a00000000000000000000000000000000000000000000000000000000081526004016103d290610a34565b60405180910390fd5b826040516020016103ec91906109d1565b6040516020818303038152906040528051906020012060008460405161041291906109d1565b90815260200160405180910390206001016040516020016104339190610b49565b604051602081830303815290604052805190602001201480156104c157508160405160200161046291906109d1565b6040516020818303038152906040528051906020012060008460405161048891906109d1565b90815260200160405180910390206002016040516020016104a99190610b49565b60405160208183030381529060405280519060200120145b156104cf57600190506104d4565b600090505b92915050565b6060816000846040516104ed91906109d1565b90815260200160405180910390206002019080519060200190610511929190610550565b506040518060400160405280601a81526020017f50617373776f7264207265736574207375636365737366756c2e000000000000815250905092915050565b82805461055c90610a83565b90600052602060002090601f01602090048101928261057e57600085556105c5565b82601f1061059757805160ff19168380011785556105c5565b828001600101855582156105c5579182015b828111156105c45782518255916020019190600101906105a9565b5b5090506105d291906105d6565b5090565b5b808211156105ef5760008160009055506001016105d7565b5090565b6000604051905090565b600080fd5b600080fd5b600080fd5b600080fd5b6000601f19601f8301169050919050565b7f4e487b7100000000000000000000000000000000000000000000000000000000600052604160045260246000fd5b61065a82610611565b810181811067ffffffffffffffff8211171561067957610678610622565b5b80604052505050565b600061068c6105f3565b90506106988282610651565b919050565b600067ffffffffffffffff8211156106b8576106b7610622565b5b6106c182610611565b9050602081019050919050565b82818337600083830152505050565b60006106f06106eb8461069d565b610682565b90508281526020810184848401111561070c5761070b61060c565b5b6107178482856106ce565b509392505050565b600082601f83011261073457610733610607565b5b81356107448482602086016106dd565b91505092915050565b60008060408385031215610764576107636105fd565b5b600083013567ffffffffffffffff81111561078257610781610602565b5b61078e8582860161071f565b925050602083013567ffffffffffffffff8111156107af576107ae610602565b5b6107bb8582860161071f565b9150509250929050565b60008115159050919050565b6107da816107c5565b82525050565b60006020820190506107f560008301846107d1565b92915050565b600060208284031215610811576108106105fd565b5b600082013567ffffffffffffffff81111561082f5761082e610602565b5b61083b8482850161071f565b91505092915050565b60008060006060848603121561085d5761085c6105fd565b5b600084013567ffffffffffffffff81111561087b5761087a610602565b5b6108878682870161071f565b935050602084013567ffffffffffffffff8111156108a8576108a7610602565b5b6108b48682870161071f565b925050604084013567ffffffffffffffff8111156108d5576108d4610602565b5b6108e18682870161071f565b9150509250925092565b600081519050919050565b600082825260208201905092915050565b60005b8381101561092557808201518184015260208101905061090a565b83811115610934576000848401525b50505050565b6000610945826108eb565b61094f81856108f6565b935061095f818560208601610907565b61096881610611565b840191505092915050565b6000602082019050818103600083015261098d818461093a565b905092915050565b600081905092915050565b60006109ab826108eb565b6109b58185610995565b93506109c5818560208601610907565b80840191505092915050565b60006109dd82846109a0565b915081905092915050565b7f55736572206973206e6f74205265676973746572656400000000000000000000600082015250565b6000610a1e6016836108f6565b9150610a29826109e8565b602082019050919050565b60006020820190508181036000830152610a4d81610a11565b9050919050565b7f4e487b7100000000000000000000000000000000000000000000000000000000600052602260045260246000fd5b60006002820490506001821680610a9b57607f821691505b60208210811415610aaf57610aae610a54565b5b50919050565b60008190508160005260206000209050919050565b60008154610ad781610a83565b610ae18186610995565b94506001821660008114610afc5760018114610b0d57610b40565b60ff19831686528186019350610b40565b610b1685610ab5565b60005b83811015610b3857815481890152600182019150602081019050610b19565b838801955050505b50505092915050565b6000610b558284610aca565b915081905092915050565b7f4e487b7100000000000000000000000000000000000000000000000000000000600052601160045260246000fd5b6000819050919050565b6000610ba482610b8f565b91507fffffffffffffffffffffffffffffffffffffffffffffffffffffffffffffffff821415610bd757610bd6610b60565b5b60018201905091905056fea26469706673582212203e8c11bc5d7af4293046193768c73a9b44579b06d534057692886ddfd18cc10464736f6c634300080a0033",
  "immutableReferences": {},
  "source": "// SPDX-License-Identifier: MIT\npragma solidity ^0.8.10 ;\n\n\ncontract Users {\n\n    struct User{\n        uint256 userId;\n        string username;\n        string password;\n        string mnemonicPhrase;\n    }\n    mapping(string => User) UserDataBase;\n    mapping(string => bool) UserExixts;\n    uint256 private userCount = 0;\n\n    function addNewUser(string memory username, string memory password, string memory mnemonicPhrase) public{\n        userCount++;\n        User memory newUser = User(userCount, username, password, mnemonicPhrase);\n        UserDataBase[username] = newUser;\n        UserExixts[username] = true;\n    }\n\n    function isUserAlreadyRegistered(string memory username) public view returns (bool){\n        return UserExixts[username];\n    }\n\n    function loginRegisteredUser(string memory username, string memory password) public view returns(bool){\n        require (UserExixts[username] == true, \"User is not Registered\");\n        if(keccak256(abi.encodePacked(UserDataBase[username].username)) == keccak256(abi.encodePacked(username)) && keccak256(abi.encodePacked(UserDataBase[username].password)) == keccak256(abi.encodePacked(password))){\n            return true;\n        }\n        return false;\n    }\n\n    function verifyUserWithMnemonicPhrase(string memory mnemonicPhrase, string memory username) public view returns(bool){\n        require (UserExixts[username] == true, \"User is not Registered\");\n        if(keccak256(abi.encodePacked(UserDataBase[username].mnemonicPhrase)) == keccak256(abi.encodePacked(mnemonicPhrase))){\n            return true;\n        }\n        return false;\n    }\n\n    function resetUserPassword(string memory username, string memory newPassword) public returns(string memory){\n        UserDataBase[username].password = newPassword;\n        return \"Password reset successful.\";\n    }\n}",
  "sourcePath": "/Users/rdshinde/Documents/Project/GPAS-prototype/contracts/AuthContract.sol",
  "compiler": {
    "name": "solc",
    "version": "0.8.10+commit.fc410830.Emscripten.clang"
  },
  "schemaVersion": "3.4.10",
  "updatedAt": "2022-11-23T07:50:47.348Z",
  "networkType": "ethereum",
  "devdoc": {
    "kind": "dev",
    "methods": {},
    "version": 1
  },
  "userdoc": {
    "kind": "user",
    "methods": {},
    "version": 1
  }
}